{
  "contractName": "SquareVerifier",
  "abi": [
    {
      "constant": false,
      "inputs": [
        {
          "name": "a",
          "type": "uint256[2]"
        },
        {
          "name": "a_p",
          "type": "uint256[2]"
        },
        {
          "name": "b",
          "type": "uint256[2][2]"
        },
        {
          "name": "b_p",
          "type": "uint256[2]"
        },
        {
          "name": "c",
          "type": "uint256[2]"
        },
        {
          "name": "c_p",
          "type": "uint256[2]"
        },
        {
          "name": "h",
          "type": "uint256[2]"
        },
        {
          "name": "k",
          "type": "uint256[2]"
        },
        {
          "name": "input",
          "type": "uint256[2]"
        }
      ],
      "name": "verifyTx",
      "outputs": [
        {
          "name": "r",
          "type": "bool"
        }
      ],
      "payable": false,
      "stateMutability": "nonpayable",
      "type": "function"
    },
    {
      "anonymous": false,
      "inputs": [
        {
          "indexed": false,
          "name": "s",
          "type": "string"
        }
      ],
      "name": "Verified",
      "type": "event"
    }
  ],
  "bytecode": "0x608060405234801561001057600080fd5b5061192b806100206000396000f3fe608060405234801561001057600080fd5b5060043610610048576000357c010000000000000000000000000000000000000000000000000000000090048063fe01ff621461004d575b600080fd5b6102f1600480360361028081101561006457600080fd5b8101908080604001906002806020026040519081016040528092919082600260200280828437600081840152601f19601f820116905080830192505050505050919291929080604001906002806020026040519081016040528092919082600260200280828437600081840152601f19601f82011690508083019250505050505091929192908060800190600280602002604051908101604052809291906000905b8282101561015a578382604002016002806020026040519081016040528092919082600260200280828437600081840152601f19601f82011690508083019250505050505081526020019060010190610106565b50505050919291929080604001906002806020026040519081016040528092919082600260200280828437600081840152601f19601f820116905080830192505050505050919291929080604001906002806020026040519081016040528092919082600260200280828437600081840152601f19601f820116905080830192505050505050919291929080604001906002806020026040519081016040528092919082600260200280828437600081840152601f19601f820116905080830192505050505050919291929080604001906002806020026040519081016040528092919082600260200280828437600081840152601f19601f820116905080830192505050505050919291929080604001906002806020026040519081016040528092919082600260200280828437600081840152601f19601f820116905080830192505050505050919291929080604001906002806020026040519081016040528092919082600260200280828437600081840152601f19601f820116905080830192505050505050919291929050505061030b565b604051808215151515815260200191505060405180910390f35b60006103156116ea565b60408051908101604052808c600060028110151561032f57fe5b602002015181526020018c600160028110151561034857fe5b6020020151815250816000018190525060408051908101604052808b600060028110151561037257fe5b602002015181526020018b600160028110151561038b57fe5b60200201518152508160200181905250604080519081016040528060408051908101604052808c60006002811015156103c057fe5b602002015160006002811015156103d357fe5b602002015181526020018c60006002811015156103ec57fe5b602002015160016002811015156103ff57fe5b6020020151815250815260200160408051908101604052808c600160028110151561042657fe5b6020020151600060028110151561043957fe5b602002015181526020018c600160028110151561045257fe5b6020020151600160028110151561046557fe5b60200201518152508152508160400181905250604080519081016040528089600060028110151561049257fe5b602002015181526020018960016002811015156104ab57fe5b6020020151815250816060018190525060408051908101604052808860006002811015156104d557fe5b602002015181526020018860016002811015156104ee57fe5b60200201518152508160800181905250604080519081016040528087600060028110151561051857fe5b6020020151815260200187600160028110151561053157fe5b60200201518152508160a00181905250604080519081016040528086600060028110151561055b57fe5b6020020151815260200186600160028110151561057457fe5b60200201518152508160e00181905250604080519081016040528085600060028110151561059e57fe5b602002015181526020018560016002811015156105b757fe5b60200201518152508160c00181905250606060026040519080825280602002602001820160405280156105f95781602001602082028038833980820191505090505b50905060008090505b600281101561064757848160028110151561061957fe5b6020020151828281518110151561062c57fe5b90602001906020020181815250508080600101915050610602565b50600061065482846106c4565b14156106b0577f3f3cfdb26fb5f9f1786ab4f1a1f9cd4c0b5e726cbdfc26e495261731aad44e396040518080602001828103825260228152602001806118de6022913960400191505060405180910390a16001925050506106b7565b6000925050505b9998505050505050505050565b60006106ce611760565b6106d6610904565b90508060e001515160018551011415156106ef57600080fd5b6106f76117d0565b6040805190810160405280600081526020016000815250905060008090505b855181101561077657610767826107628560e001516001850181518110151561073b57fe5b90602001906020020151898581518110151561075357fe5b90602001906020020151610f44565b610fe0565b91508080600101915050610716565b5061079d818360e00151600081518110151561078e57fe5b90602001906020020151610fe0565b90506107c6846000015183600001516107b9876020015161109d565b6107c1611139565b611203565b15156107d7576001925050506108fe565b6107fe826020015185604001516107f1876060015161109d565b6107f9611139565b611203565b151561080f576002925050506108fe565b610836846080015183604001516108298760a0015161109d565b610831611139565b611203565b1515610847576003925050506108fe565b6108938460c0015183606001516108776108728561086d8a600001518b60800151610fe0565b610fe0565b61109d565b8560a00151610889876080015161109d565b896040015161130f565b15156108a4576004925050506108fe565b6108e66108b5828660000151610fe0565b85604001516108c78760e0015161109d565b8560c001516108d9896080015161109d565b6108e1611139565b61130f565b15156108f7576005925050506108fe565b6000925050505b92915050565b61090c611760565b604080519081016040528060408051908101604052807f23dc48eb12044629b7200bf47c2b68df3cf31b8a43b19a1551138c07da7fb41181526020017f149ef91ffc9d875677f5e73aec1b0db1030f2308b4b02e55110152390c247629815250815260200160408051908101604052807f0741386accc75273f67a94631722652345383dc6fd5f62ab94fc0716f8d06c6f81526020017f2218d812616158c7ff62309fc10daaddd93c2ade948fec1d7380803530945210815250815250816000018190525060408051908101604052807f302e0b5a42101bb56bbc9ef0f470d09bdd649daf0a7dc98b341793e309d0b3d181526020017f2c6ca8c9d976572f93710180253955ef332565bf68f208b82d0d246fbaf171418152508160200181905250604080519081016040528060408051908101604052807f1b261a58ff837b3683336c5b44ee5838f35b5bff43f60c1eaff88c50175d923281526020017f162ce9d256c3014dbe863af2a7ce02dd3aeaaa57bcb46023f86fbf66ec0ba60b815250815260200160408051908101604052807f0eecc1acf6681e086c8622674f5b66cf24ed4dbea2cbf41d224e388bb2c1c0c781526020017f13d9f51537476244e08dd98286a6e23d9fe0e1e8ece4356856809e25db196cff8152508152508160400181905250604080519081016040528060408051908101604052807f2473f2c24bd0fe6e4ec81f2d5c96f6e90d2b763dff76f12b4dfe2b4ca8f1cf0081526020017e102404f1000bd1d41799814d819b610b45ab00262fb58fce94cbdcf7fa49f2815250815260200160408051908101604052807f0c7b5d237f726eca7b7f8b2c3ad599fcd8a524b12080102ae4dd13ba6d07e6e581526020017f06a6b1f0e1ed69f7102eed2e63b54acd1844b09d4869e6620e340df12b93d3a3815250815250816060018190525060408051908101604052807f1774fdcab92d593bda638bada160610e08b92b958ad5b57127b9bafc4b64bf5281526020017f0dd7fdda52d85bc8ccb1c512501661d95255e9bd346dcf07396082f03498e4de8152508160800181905250604080519081016040528060408051908101604052807f2240dc62b0e46b5c08645020c93a69f0cf35a9083a3f76a1580a8d40cba1682e81526020017f11e9b6a4156f63aea7100ebf2b1879d419aeab6eeae63fce81bd7713b22ba987815250815260200160408051908101604052807f094328be34e93b1f0b4404c191a2d7c790795b0f109b8676ae47d9bf9e83b59e81526020017f215eda9ed4cbc1cea1aee46c1cf7b65b724c14b736e0f70986cf8b0ada4e102b8152508152508160a00181905250604080519081016040528060408051908101604052807f18deec112ad310ce4894b9485be62cf77433267359db8002c5b7840efc54beee81526020017f1938087bff8e25c4d9e897671a067c196ea3772a081fb8c92321a096c7999545815250815260200160408051908101604052807f1b5bf164d5d4381179c34a1ffaf18fa0023cdec01bed19cba994edd1555f074b81526020017f0c11acac6947b01120c16632506b5cae3a4926cfab8c878ca48f6a007af53b938152508152508160c001819052506003604051908082528060200260200182016040528015610dd957816020015b610dc66117ea565b815260200190600190039081610dbe5790505b508160e0018190525060408051908101604052807f1c801d5d92c7fb2289bacd7837959a82a7482bb05f8ac9a9c31546784f5d25d181526020017f1bf15abfa3a6153855c4b85eaac51b25ae095581982aed0bfe01c8a76216d82b8152508160e001516000815181101515610e4a57fe5b9060200190602002018190525060408051908101604052807f1620361d57a3f71fa86a7b398c1e2610707cd5e33ab02bd2f4aaa122a20c686681526020017f1cdafae2ee96515ceaf1c71cba4fc540edc6c97b52266dbe16482aefb3d51cbf8152508160e001516001815181101515610ebf57fe5b9060200190602002018190525060408051908101604052807f2741de58be4c6f18d8e4769ceb2cced5739a5018ee5a0eb61dd6d7150a89a71281526020017f2f6dc18067c5d2c119906af7cd85f78c3b0c2ad4309240486ed16d64e0c1dbbd8152508160e001516002815181101515610f3457fe5b9060200190602002018190525090565b610f4c6117d0565b610f54611804565b8360000151816000600381101515610f6857fe5b6020020181815250508360200151816001600381101515610f8557fe5b60200201818152505082816002600381101515610f9e57fe5b6020020181815250506000606083608084600060076107d05a03f190508060008114610fc957610fcb565bfe5b50801515610fd857600080fd5b505092915050565b610fe86117d0565b610ff0611827565b836000015181600060048110151561100457fe5b602002018181525050836020015181600160048110151561102157fe5b602002018181525050826000015181600260048110151561103e57fe5b602002018181525050826020015181600360048110151561105b57fe5b602002018181525050600060608360c084600060066107d05a03f19050806000811461108657611088565bfe5b5080151561109557600080fd5b505092915050565b6110a56117d0565b60007f30644e72e131a029b85045b68181585d97816a916871ca8d3c208c16d87cfd479050600083600001511480156110e2575060008360200151145b15611106576040805190810160405280600081526020016000815250915050611134565b60408051908101604052808460000151815260200182856020015181151561112a57fe5b0683038152509150505b919050565b61114161184a565b604080519081016040528060408051908101604052807f198e9393920d483a7260bfb731fb5d25f1aa493335a9e71297e485b7aef312c281526020017f1800deef121f1e76426a00665e5c4479674322d4f75edadd46debd5cd992f6ed815250815260200160408051908101604052807f090689d0585ff075ec9e99ad690c3395bc4b313370b38ef355acdadcd122975b81526020017f12c85ea5db8c6deb4aab71808dcb408fe3d1e7690c43d37b4ce6cc0166fa7daa815250815250905090565b60006060600260405190808252806020026020018201604052801561124257816020015b61122f6117ea565b8152602001906001900390816112275790505b5090506060600260405190808252806020026020018201604052801561128257816020015b61126f611871565b8152602001906001900390816112675790505b5090508682600081518110151561129557fe5b90602001906020020181905250848260018151811015156112b257fe5b90602001906020020181905250858160008151811015156112cf57fe5b90602001906020020181905250838160018151811015156112ec57fe5b906020019060200201819052506113038282611457565b92505050949350505050565b60006060600360405190808252806020026020018201604052801561134e57816020015b61133b6117ea565b8152602001906001900390816113335790505b5090506060600360405190808252806020026020018201604052801561138e57816020015b61137b611871565b8152602001906001900390816113735790505b509050888260008151811015156113a157fe5b90602001906020020181905250868260018151811015156113be57fe5b90602001906020020181905250848260028151811015156113db57fe5b90602001906020020181905250878160008151811015156113f857fe5b906020019060200201819052508581600181518110151561141557fe5b906020019060200201819052508381600281518110151561143257fe5b906020019060200201819052506114498282611457565b925050509695505050505050565b60008151835114151561146957600080fd5b60008351905060006006820290506060816040519080825280602002602001820160405280156114a85781602001602082028038833980820191505090505b50905060008090505b838110156116865786818151811015156114c757fe5b906020019060200201516000015182600060068402018151811015156114e957fe5b9060200190602002018181525050868181518110151561150557fe5b9060200190602002015160200151826001600684020181518110151561152757fe5b9060200190602002018181525050858181518110151561154357fe5b9060200190602002015160000151600060028110151561155f57fe5b6020020151826002600684020181518110151561157857fe5b9060200190602002018181525050858181518110151561159457fe5b906020019060200201516000015160016002811015156115b057fe5b602002015182600360068402018151811015156115c957fe5b906020019060200201818152505085818151811015156115e557fe5b9060200190602002015160200151600060028110151561160157fe5b6020020151826004600684020181518110151561161a57fe5b9060200190602002018181525050858181518110151561163657fe5b9060200190602002015160200151600160028110151561165257fe5b6020020151826005600684020181518110151561166b57fe5b906020019060200201818152505080806001019150506114b1565b5061168f611898565b60006020826020860260208601600060086107d05a03f1905080600081146116b6576116b8565bfe5b508015156116c557600080fd5b60008260006001811015156116d657fe5b602002015114159550505050505092915050565b610240604051908101604052806116ff6117ea565b815260200161170c6117ea565b8152602001611719611871565b81526020016117266117ea565b81526020016117336117ea565b81526020016117406117ea565b815260200161174d6117ea565b815260200161175a6117ea565b81525090565b61032060405190810160405280611775611871565b81526020016117826117ea565b815260200161178f611871565b815260200161179c611871565b81526020016117a96117ea565b81526020016117b6611871565b81526020016117c3611871565b8152602001606081525090565b604080519081016040528060008152602001600081525090565b604080519081016040528060008152602001600081525090565b606060405190810160405280600390602082028038833980820191505090505090565b608060405190810160405280600490602082028038833980820191505090505090565b60806040519081016040528061185e6118bb565b815260200161186b6118bb565b81525090565b6080604051908101604052806118856118bb565b81526020016118926118bb565b81525090565b602060405190810160405280600190602082028038833980820191505090505090565b604080519081016040528060029060208202803883398082019150509050509056fe5472616e73616374696f6e207375636365737366756c6c792076657269666965642ea165627a7a72305820ba3f75dc476ea460ac3e320466985741c475f809e849481b02737af719a7af0b0029",
  "source": "pragma solidity >=0.4.21 <0.6.0;\n\n// TODO define a contract call to the zokrates generated solidity contract <Verifier> or <renamedVerifier>\nimport \"./Verifier.sol\";\nimport \"./ERC721Mintable.sol\";\ncontract SquareVerifier is Verifier {\n}\n//SquareVerifier public _verifier;\n//constructor (address _address) public {\n//    _verifier = SquareVerifier(_address);\n//}\n// TODO define another contract named SolnSquareVerifier that inherits from your ERC721Mintable class\ncontract SolnSquareVerifier is CustomERC721Token{\n\n\n// TODO define a solutions struct that can hold an index & an address\n\tstruct SolutionStruct {\n    \tuint256 id;\n\t\taddress solutionAddress;\n\t}\n\n// TODO define an array of the above struct\n    SolutionStruct[] solutions;\n\n// TODO define a mapping to store unique solutions submitted\n    mapping(bytes32 => SolutionStruct) private solutionsMapping;\n\n\n// TODO Create an event to emit when a solution is added\nevent solutionAddedEvent(address solutionAddress);\nevent VerifierChanged(address newVerifier);\n\n\n\n// TODO Create a function to add the solutions to the array and emit the event\n\tfunction addSolutionToArray(address _solutionAddress, uint256 _id, uint[2] memory A, uint[2] memory A_p, uint[2][2] memory B, uint[2] memory B_p, uint[2] memory C, uint[2] memory C_p, uint[2] memory H, uint[2] memory K, uint[2] memory input) public {\n\t\tbytes32 key = keccak256(abi.encodePacked(A, A_p, B, B_p, C, C_p, H, K, input));\n\t\t//require(isSolutionUnique(key), \"The Solution Exists...Can't have duplicates\");\n        SolutionStruct memory sol = SolutionStruct({id: _id, solutionAddress: _solutionAddress});\n        //solutionsSubmittedMapping[key] = sol;\n        //solutions.push(sol);\n        emit solutionAddedEvent(_solutionAddress);\n    }\n/*\n    function isSolutionUnique(bytes32 key) public view returns (bool){\n    \tbool isUnique = true;\n    \tif (solutionsSubmitted[key].solutionAddress != address(0)){\n    \t\tisUnique = false;\n    \t}\n\t\treturn isUnique;\t\n    }\n*/\n// TODO Create a function to mint new NFT only after the solution has been verified\n//  - make sure the solution is unique (has not been used before)\n//  - make sure you handle metadata as well as tokenSuplly\n\tfunction mintNFT(address _to, \n\t\t\t\t\tuint256 _tokenId, \n\t\t\t\t\tuint[2] memory A, \n\t\t\t\t\tuint[2] memory A_p, \n\t\t\t\t\tuint[2][2] memory B, \n\t\t\t\t\tuint[2] memory B_p, \n\t\t\t\t\tuint[2] memory C, \n\t\t\t\t\tuint[2] memory C_p, \n\t\t\t\t\tuint[2] memory H, \n\t\t\t\t\tuint[2] memory K, \n\t\t\t\t\tuint[2] memory input) public{\n\t\t//require(Verifier.verifyTx(A, A_p, B, B_p, C, C_p, H, K, input), \"Invalid Solution...Tx Verified\");\n\t\taddSolutionToArray(_to, _tokenId, A, A_p, B, B_p, C, C_p, H, K, input);\n\t\tsuper.mint(_to, _tokenId);\n    }\n}\n  \n\n\n\n\n\n\n\n\n\n\n\n\n\n\n\n\n\n\n\n\n\n\n\n\n\n\n",
  "sourcePath": "/Users/203014767/Blockchain-Capstone-master2/eth-contracts/contracts/SolnSquareVerifier.sol",
  "compiler": {
    "name": "solc",
    "version": "0.5.2+commit.1df8f40c.Emscripten.clang"
  },
  "schemaVersion": "3.0.6",
  "updatedAt": "2019-05-21T14:36:48.363Z",
  "devdoc": {
    "methods": {}
  },
  "userdoc": {
    "methods": {}
  }
}